:020000040800F2
:10000000FCFF0020551700004D1700004D170000A1
:100010004D1700004D1700004D1700004D17000050
:100020004D1700004D1700004D1700004D17000040
:100030004D1700004D1700004D1700004D17000030
:100040004D1700004D1700004D1700004D17000020
:100050004D1700004D1700004D1700004D17000010
:100060004D1700004D1700004D1700004D17000000
:100070004D1700004D1700004D1700004D170000F0
:100080004D1700004D1700004D1700004D170000E0
:100090004D1700004D1700004D1700004D170000D0
:1000A0004D1700004D1700004D1700004D170000C0
:1000B0004D1700004D1700004D1700004D170000B0
:1000C0004D1700004D1700004D1700004D170000A0
:1000D0004D1700004D1700004D1700004D17000090
:1000E0004D1700004D1700004D1700004D17000080
:1000F0004D1700004D1700004D1700004D17000070
:100100004D1700004D1700004D1700004D1700005F
:100110004D1700004D1700004D1700004D1700004F
:100120004D1700004D1700004D1700004D1700003F
:100130004D1700004D1700004D1700004D1700002F
:100140004D1700004D1700004D1700004D1700001F
:1001500081B00248006801B0704700BF2C00002049
:1001600081B0194900EA0101084600220EE004208E
:1001700022E0082020E010201EE020201CE040208B
:100180001AE0802018E040F2001015E00F49884284
:10019000EDD00F498842ECD00E498842EBD00E4991
:1001A0008842EAD00D498842E9D00D498842E8D01A
:1001B0000C498842E7D010460B49096841EA000221
:1001C00009490A6001B0704700FCFFFF00080140C8
:1001D000000C0140001001400014014000180140D3
:1001E000001C0140002001401810024083B0CDF8EF
:1001F00000E000F0FF031A09104603F00F02134657
:1002000014E0194A02921FE0184A02921CE0184AB0
:10021000029219E0174A029216E0174A029213E07E
:10022000164A029210E0164A02920DE00028E8D029
:100230000128E9D00228EAD00328EBD00428ECD02A
:100240000528EDD00628EED0012212B29A40ADF872
:10025000042002980A46BDF8041000F033FADDF8D5
:1002600000E003B0704700BF00080140000C0140EF
:10027000001001400014014000180140001C014022
:100280000020014082B0CDF800E0034619460191FC
:10029000FFF75EFF40F2E83100FB01F201990A60CE
:1002A0001F490978C1F30311C8B21E49091808781B
:1002B000C0B21A1D1968C140116019490988C1F3FB
:1002C000022188B2174909180878C0B203F208025F
:1002D000191D0968C140116011490988C1F3C22183
:1002E00088B2104909180878C0B203F20C02191D2F
:1002F0000968C14011600A490988C1F3813188B297
:10030000094909180978C8B203F2100203F20C0176
:100310000968B1FBF0F11160DDF800E002B0704750
:1003200004100240CC1A0000CC0C000081B0CDF8C3
:1003300000E0012252B23E490A6000F268010B68F7
:100340006FF0006103EA0102144603F00061C90E78
:100350000B4602F00041B1F1004F02D135490A6865
:1003600001E035490A6804F47021090C0E464FF685
:10037000FF7104EA01010D4604F44011B1F5401F7C
:100380000DD16FF0706102EA01010E462A490A6838
:100390006FF070610A4028490A60324616E004F4A2
:1003A0008011B1F5801F09D14FF00301B140C9435D
:1003B00002EA010141F070610A4607E0610D09019E
:1003C00005FA01F1C9430A4042F070622BB1610D98
:1003D000090105FA01F10A43FFE704F00041B1F118
:1003E000004F02D113490A6001E013490A6040F24C
:1003F000000A81464FEA8A0109EB01010968B1F15F
:10040000FF3F10D009F134014FEA8A03C918096887
:100410000A4609EB0301096808461146FFF7E6FEA4
:100420000AF1010AE6E7DDF800E001B0704700BF1D
:10043000000342421C0001400400014081B000233F
:100440000360CB009BB242EA030304689BB244EA18
:1004500003030360051D13141C462B6864F3820319
:100460002B6000F21C0500242B6864F3CB232B6067
:100470000124036864F38613036001B07047FFFF33
:1004800089B0CDF800E0834698B28C46BDF82410C0
:100490000A9E04ACADF80410ADF808002046FFF742
:1004A000F1FEBDF80800BDF80410644CA34512D15C
:1004B00001256DB2624C2560624D634C2560634D31
:1004C000634C2560634D644C2560644D644C25602D
:1004D000079C039456E0634CA34512D101256DB2ED
:1004E000614C2560614D584C2560614D584C25602C
:1004F000604D594C2560604D594C2560069C039415
:1005000040E05E4CA34512D101256DB25C4C2560E4
:100510005C4D4D4C25605C4D4D4C25605B4D4E4C0B
:1005200025605B4D4E4C2560069C03942AE0594C97
:10053000A34512D101256DB2574C2560574D424C51
:100540002560574D424C2560564D434C2560564D15
:10055000434C2560069C039414E0544CA34511D1F0
:1005600001256DB2524C2560524D374C2560524DDD
:10057000374C2560514D384C2560514D384C256025
:10058000069C0394ADF80410ADF808003046FFF760
:10059000CDFEBDF80800BDF804100BF110050024D5
:1005A0002C600BF110052C680C432C600BF10C0532
:1005B00000242C6018B140F4806080B2FFE70BF19A
:1005C0000C052C6804432C600BF10C0601253468E3
:1005D00065F34D3434600BF10C060125346865F386
:1005E000C30434600BF10C060125346865F3820402
:1005F00034600BF1140500242C60039D192465431D
:100600004FEA8C04B5FBF4F76424B7FBF4F426013D
:10061000350964246C433C1B240104F23205642434
:10062000B5FBF4F404F00F0446EA04040BF10805EA
:10063000A4B22C60DDF800E009B07047003801403A
:1006400038034242E509000038000020FFFFFFFFA9
:100650003C000020FFFFFFFF40000020FFFFFFFFE6
:100660004400002000440040C4034242C909000085
:10067000FFFFFFFFFFFFFFFFFFFFFFFF00480040FE
:10068000C8034242510A0000FFFFFFFFFFFFFFFFC8
:10069000FFFFFFFF004C0040CC034242350A000040
:1006A000FFFFFFFFFFFFFFFFFFFFFFFF00500040C6
:1006B000D0034242190A0000FFFFFFFFFFFFFFFFC8
:1006C000FFFFFFFF81B0CDF800E08CB21546774BFD
:1006D00000EA03031E461846FFF742FDB4F1FF0F80
:1006E0000CD1734B9D4203D14FF033333360D9E0CB
:1006F000422D03D14FF044333360D3E04FF6FF7304
:100700009C4214D16A4B9D4207D14FF03333336082
:10071000341D4FF033332360C4E0422D07D14FF036
:1007200044333360341D4FF044332360BAE000217A
:10073000002005F001030BB100211DE005F00203CC
:1007400033B105F4C0730BB1082100E0042113E0BC
:1007500005F0040333B105F020030BB1042100E0E0
:10076000002109E005F0080333B105F020030BB1C7
:100770000C2100E00821FFE74E4B05EA03030BB113
:10078000032009E005F400730BB1022004E005F436
:1007900080630BB10120FFE705F00C030BB10143AF
:1007A000FFE704F0FF039BB2002B3BD0376800202B
:1007B0001FFA84F832462E4608282CD24FF0010347
:1007C00003FA00F408EA0403A34222D185004FF0A3
:1007D0000F03AB40DB4307EA030401FA05F344EAE5
:1007E00003031D4606F48173B3F5817F05D102F240
:1007F00014044FF001038340236006F08203822B30
:1008000005D102F210044FF00103834023602F460C
:10081000FFE7401CD0E717601FFA88F00F4631460B
:10082000164602E00F462946A0B2B0F1FF0F39D9B3
:10083000331DD3F800800022082A30D202F20804C7
:100840004FF0010303FA04F400EA0403A34224D1A5
:1008500095004FF00F03AB40DB4308EA030807FAAB
:1008600005F348EA030801F48173B3F5817F07D1EA
:1008700006F2140502F208044FF00103A3402B60B6
:1008800001F08203822B07D106F2100502F2080460
:100890004FF00103A3402B60FFE7521CCCE7331D50
:1008A000C3F80080DDF800E001B0704700FCFFFFF6
:1008B000140008000008080081B000F20C0211606A
:1008C00000F208021368C3F3000202B9F8E700F26D
:1008D0000C02126890B201B07047FFFF81B0ADF812
:1008E00000100146BDF800000B68C3F3C01202B946
:1008F000FAE70A1D106001B07047FFFF81B0CDF824
:1009000000E0019D2C4610B408B493B28AB20146AF
:100910000348FFF7B5FD02B0DDF800E001B0704715
:100920000044004081B0CDF800E081B20348FFF7F9
:10093000C3FFDDF800E001B0704700BF00300140A8
:1009400081B0CDF800E0019D2C4610B408B493B2FC
:100950008AB201460348FFF793FD02B0DDF800E0DC
:1009600001B070470038014081B0CDF800E0019D32
:100970002C4610B408B493B28AB201460348FFF77C
:100980007FFD02B0DDF800E001B070470048004094
:1009900081B0CDF800E081B20348FFF78DFFDDF8AC
:1009A00000E001B0704700BF0038004081B0CDF8D2
:1009B00000E081B20348FFF77FFFDDF800E001B0FF
:1009C000704700BF003C004081B0CDF800E081B22C
:1009D0000348FFF783FFDDF800E001B0704700BF78
:1009E0000044004081B0CDF800E081B20348FFF739
:1009F00075FFDDF800E001B0704700BF003801402E
:100A000081B0CDF800E04FF0420289B2FFF75AFE04
:100A1000DDF800E001B0704781B0CDF800E081B2B0
:100A20000348FFF75BFFDDF800E001B0704700BF4F
:100A30000050004081B0CDF800E081B20348FFF7DC
:100A40004DFFDDF800E001B0704700BF004C0040F2
:100A500081B0CDF800E081B20348FFF73FFFDDF839
:100A600000E001B0704700BF0048004081B0CDF801
:100A700000E081B20348FFF71FFFDDF800E001B09E
:100A8000704700BF0030014083B0CDF800E08DF822
:100A9000040002910B4C0C4B1C600C4C0C4B1C606A
:100AA000012464B20B4B1C601046FFF73FFC029A16
:100AB0009DF804100848FFF7C1FCDDF800E003B022
:100AC000704700BFAD09000030000020150B00008A
:100AD00034000020BC034242003C004081B0CDF80D
:100AE00000E081B20348FFF7E7FEDDF800E001B067
:100AF000704700BF0038004081B0CDF800E0044AE4
:100B000089B2FFF7DFFDDDF800E001B0704700BFFC
:100B10001400080081B0CDF800E081B20348FFF76F
:100B2000CBFEDDF800E001B0704700BF003C0040A4
:100B300081B00248006801B0704700BF24812242A2
:100B400081B00248006801B0704700BF288122428E
:100B500081B00248006801B0704700BF0001214227
:100B600081B00248006801B0704700BF2081224276
:100B700081B00248006801B0704700BF14012142F3
:100B800081B00248006801B0704700BF1C8121425B
:100B900081B00248006801B0704700BF188121424F
:100BA00081B00248006801B0704700BF08012242CE
:100BB00081B00248006801B0704700BF10012142B7
:100BC00081B000F230031A6806490A6003F210018E
:100BD0000A6805490A6000F208010A6803490A60C8
:100BE00001B07047540000204C0000204800002055
:100BF00081B00248006801B0704700BF34812242D2
:100C000081B00248006801B0704700BF3001224245
:100C100081B00248006801B0704700BF2C01224239
:100C200081B00248006801B0704700BF280122422D
:100C300081B00248006801B0704700BF18812142AE
:100C400081B00248006801B0704700BF14812242A1
:100C500081B00248006801B0704700BF188122428D
:100C600081B00248006801B0704700BF1C8121427A
:100C700081B0CDF800E00178CCB2A0B2034C24687A
:100C8000A0470020DDF800E001B0704728000020F8
:100C900083B0CDF800E0ADF808100190BDF8083041
:100CA000BDF80820521EADF808204BB10020064CBC
:100CB0002468A047019A1070019A521C0192EDE736
:100CC000DDF800E003B07047500000200204060881
:100CD00081B040F20B07C0F200077F1EFDD100BFBC
:100CE00000BF00BF00BF00BF01B0704781B0024825
:100CF000006801B0704700BF2801224281B002485D
:100D0000006801B0704700BF3881224281B00248BC
:100D1000006801B0704700BF0C01224281B0024858
:100D2000006801B0704700BF2C01224281B0024828
:100D3000006801B0704700BF3081224281B0024894
:100D4000006801B0704700BF3081224281B0024884
:100D5000006801B0704700BF3001224281B00268D4
:100D600003490A60011D0A6802490A6001B0704720
:100D7000580000205000002081B00249086001B0F6
:100D8000704700BFA801224281B00249086001B04B
:100D9000704700BFAC01224281B00249086001B037
:100DA000704700BF8801224281B00249086001B04B
:100DB000704700BFB481224281B00249086001B08F
:100DC000704700BFA881224281B00249086001B08B
:100DD000704700BFA481224281B00249086001B07F
:100DE000704700BFB001224281B00249086001B0E3
:100DF000704700BF8001214281B00249086001B004
:100E0000704700BF9001214281B0CDF800E0011D84
:100E10000A680168C8B21146034AFFF735FE002090
:100E2000DDF800E001B07047BC18000081B0CDF8DB
:100E300000E0011D0A680168C8B21146034AFFF7C5
:100E400023FE0020DDF800E001B07047BC18000070
:100E500081B0CDF800E0A9E0012905D140F21001F0
:100E60006548FFF7CDFD04E040F210016248FFF74E
:100E700043FEBBE0012905D140F204015F48FFF7C2
:100E8000BFFD04E040F204015C48FFF735FEADE031
:100E9000012905D142F200015948FFF7B1FD04E0F4
:100EA00042F200015648FFF727FE9FE0012905D1D5
:100EB00040F200415148FFF7A3FD04E040F2004139
:100EC0004E48FFF719FE91E0012905D140F60001D7
:100ED0004A48FFF795FD04E040F600014748FFF758
:100EE0000BFE83E0012905D141F200014348FFF7E1
:100EF00087FD04E041F200014048FFF7FDFD75E089
:100F0000012905D140F201013B48FFF779FD04E0DA
:100F100040F201013848FFF7EFFD67E0012905D1F4
:100F200040F200413648FFF76BFD04E040F200411B
:100F30003348FFF7E1FD59E0012905D140F20021D6
:100F40002F48FFF75DFD04E040F200212C48FFF739
:100F5000D3FD4BE0012905D140F200112848FFF7ED
:100F60004FFD04E040F200112548FFF7C5FD3DE0CC
:100F7000012905D140F240012248FFF741FD04E07C
:100F800040F240011F48FFF7B7FD2FE0012905D1CE
:100F900040F280011B48FFF733FD04E040F280017E
:100FA0001848FFF7A9FD21E0012020E000283FF4C8
:100FB00053AF01283FF45EAF02283FF469AF032826
:100FC0003FF474AF04283FF47FAF05283FF48AAFA5
:100FD00006283FF495AF0728A0D00828ACD00928F0
:100FE000B8D00A28C4D00B28D0D0DDE70020DDF827
:100FF00000E001B0704700BF000801400010014050
:1010000000140140000C014081B0CDF800E0A9E0DF
:10101000012905D140F220016548FFF7F1FC04E009
:1010200040F220016248FFF767FDBBE0012905D1CE
:1010300040F208015F48FFF7E3FC04E040F20801DA
:101040005C48FFF759FDADE0012905D144F20001EC
:101050005948FFF7D5FC04E044F200015648FFF779
:101060004BFD9FE0012905D140F200415148FFF7B7
:10107000C7FC04E040F200414E48FFF73DFD91E01F
:10108000012905D140F600014A48FFF7B9FC04E008
:1010900040F600014748FFF72FFD83E0012905D105
:1010A00041F200014348FFF7ABFC04E041F20001CC
:1010B0004048FFF721FD75E0012905D141F200010B
:1010C0003D48FFF79DFC04E041F200013A48FFF77C
:1010D00013FD67E0012905D140F600013648FFF70E
:1010E0008FFC04E040F600013348FFF705FD59E0AE
:1010F000012905D140F240012F48FFF781FC04E0AF
:1011000040F240012C48FFF7F7FC4BE0012905D1E4
:1011100040F220012848FFF773FC04E040F2200170
:101120002548FFF7E9FC3DE0012905D140F24001E7
:101130002248FFF765FC04E040F240011F48FFF73A
:10114000DBFC2FE0012905D140F280011B48FFF7AD
:1011500057FC04E040F280011848FFF7CDFC21E085
:10116000012020E000283FF453AF01283FF45EAF98
:1011700002283FF469AF03283FF474AF04283FF41A
:101180007FAF05283FF48AAF06283FF495AF0728C4
:10119000A0D00828ACD00928B8D00A28C4D00B2881
:1011A000D0D0DDE70020DDF800E001B0704700BFDF
:1011B000000801400010014000140140000C0140F3
:1011C00081B0CDF800E0094902B440F2000340F2DA
:1011D000000240F20001FFF7B3FB01B0044A0549E9
:1011E0000A600020DDF800E001B0704794190000AB
:1011F000E50900002800002081B0CDF800E0094991
:1012000002B440F2000340F2000240F20001FFF796
:1012100075FB01B0044A05490A600020DDF800E0D2
:1012200001B07047001A0000C90900002800002022
:1012300081B0CDF800E0094902B440F2000340F269
:10124000000240F20001FFF78FFB01B0044A05499C
:101250000A600020DDF800E001B0704728190000A6
:10126000510A00002800002081B0CDF800E00949B3
:1012700002B440F2000340F2000240F20001FFF726
:101280003DFB01B0044A05490A600020DDF800E09A
:1012900001B07047001A0000C909000028000020B2
:1012A00081B00249086001B0704700BFB08122429E
:1012B00081B00249086001B0704700BF9C812142A3
:1012C00081B00249086001B0704700BFB0012242FE
:1012D00081B00249086001B0704700BFB08122426E
:1012E00081B00249086001B0704700BF9881214277
:1012F00081B00249086001B0704700BF948122426A
:1013000081B00249086001B0704700BF9881224255
:1013100081B00249086001B0704700BFAC012242B1
:1013200081B00249086001B0704700BF9C81214232
:1013300081B00249086001B0704700BF94012142AA
:1013400081B00249086001B0704700BFA08122420D
:1013500081B00249086001B0704700BF9881214206
:1013600081B00249086001B0704700BFA801224265
:1013700081B00249086001B0704700BFB8812242C5
:1013800081B00249086001B0704700BF8C01224261
:1013900082B0CDF800E000201D4C2468A04740F248
:1013A0007707C0F2000700BF00BF7F1EFDD100BF5E
:1013B00000BF00BF174C2468A04700B906E0012019
:1013C000134C2468A047FFF783FCE4E70020104C8F
:1013D0002468A04701A80321FFF75AFC01200C4C08
:1013E0002468A04701AA10780102501C007841EA45
:1013F00000000102901C007801430A460648814221
:1014000001D2104600E00020DDF800E002B0704795
:10141000480000204C00002080841E0081B0CDF8E0
:1014200000E05FFA81F95FFA82FA0FE05FFA8AF171
:101430005FFA89F0FFF70CFD0DE05FFA8AF15FFAC1
:1014400089F0FFF7E1FD06E0012004E00028EDD07F
:101450000128F2D0F8E7DDF800E001B07047FFFFA7
:1014600081B0CDF800E08B4609E05846FFF7CCFC90
:101470000AE05846FFF7DAFC06E0012004E0002805
:10148000F3D00128F5D0F8E7DDF800E001B07047AF
:1014900081B0CDF800E011E00846FFF7C9FE16E084
:1014A0000846FFF7E1FE12E00846FFF789FE0EE06E
:1014B0000846FFF7A1FE0AE0012008E00028EBD073
:1014C0000128EDD02028EFD03028F1D0F4E7DDF866
:1014D00000E001B07047FFFF81B0CDF800E00346A7
:1014E0000846FFF73BFC1846FFF76AFB0120034C58
:1014F0002468A047DDF800E001B0704748000020F4
:1015000083B0CDF800E0024610460D228DF8082089
:101510000A228DF809201FE0FFF7AAFB23E00278DA
:101520002AB10190FFF7A4FB0198401CF7E71AE0ED
:1015300002782AB10190FFF79BFB0198401CF7E766
:1015400002AA1046FFF794FB0DF109021046FFF7BF
:101550008FFB08E0062007E00029DDD00129DED05E
:101560000229E5D0F6E70020DDF800E003B070477F
:1015700081B00A46014600200D4611460A2805D2D0
:101580000B1820221A70401C80B2F7E70B180022BB
:101590001A70401E80B20C180A23B5FBF3F203FB4D
:1015A0001252303222700A22B5FBF2F2154602B90D
:1015B00002E0401E80B2EEE701B0704781B04FF00C
:1015C00000094FF0000CBDEB0A0F04DCBDEB0B0F64
:1015D00001DBD446EA464BF8049BBBEB0A0FFAD179
:1015E000BCEB0A0F05DDE246D9F800B00BF1040BA5
:1015F000F1E701B07047FFFF81B01548006840F087
:101600000101134801601349134801601048016843
:10161000124801400E4801600D4801686FF48020B7
:1016200001400B4801600C4801686FF4FE00014066
:1016300009480160064801686FF0A0500140044865
:1016400001604FF000010648016001B0704700BF23
:10165000001002400000FFF004100240FFFFF6FE01
:101660002C10024081B01CF8019B0BF8019BBBEBD6
:101670000A0FF8D101B0704781B0CDF800E0FFF754
:1016800087FE0E4908600E49FFF772FF0D480121E1
:10169000FFF736FF02210A48FFF732FF41F6FF2726
:1016A000C0F2B70700BF00BF7F1EFDD100BF00BF63
:1016B00000BFDDF800E001B0704700BF100000205F
:1016C000140000200000002081B0CDF800E00449A3
:1016D0000448FFF701FFDDF800E001B0704700BFEC
:1016E000EC1A00006C1A000081B0CDF800E0012275
:1016F00004210020FFF792FE002202210020FFF7C4
:101700008DFE0C4801460020FFF7AAFE42F28051F0
:101710002020FFF7BDFE44F67F77C0F2120700BF1E
:1017200000BF7F1EFDD100BF00BF00BFDDF800E09D
:1017300001B07047F41A000081B00249024801600C
:1017400001B07047401901002C00002081B0FEE775
:1017500001B0704781B000F00FF800F00FFAFFF70A
:10176000EBFF00F0CBF9FFF7BFFFFFF7ADFFFFF78F
:1017700083FFFCE7FEE7FFFF81B0CDF800E0464ABB
:10178000464B474C47494BF68030814206D9464884
:10179000006840F002014448016011E045F6C05085
:1017A000814206D94048006840F001013E4801608E
:1017B00006E03D4801686FF0070001403A480160CB
:1017C000FFF71AFF3948036039480460394802EAD4
:1017D00000013948016002F0010040B11946364865
:1017E000006800F00200002800D1F8E700E0194688
:1017F00002F4803040B10B462F48006800F40030FE
:10180000002800D1F8E700E00B4602F0805068B1F4
:101810002948006840F08051274801602648006848
:1018200000F00050002800D1F8E7FFE702F08060E8
:1018300078B12148006840F080611F48016011467E
:101840001A461D48006800F00060002800D1F8E743
:1018500001E011461A4601F0807070B11648006828
:1018600040F080711448016011461348006800F090
:10187000007000B9F9E70A46FFE70C48006800F07D
:101880000C01900000F00C00814200D0F5E7DDF87B
:1018900000E001B0704700BF8100010502841D0017
:1018A00044060100401901000020024004100240DB
:1018B0002C100240FFFF0F00001002402A00000021
:1018C0002B0000002C000000FFFFFFFF00000000C5
:1018D0000000000000000000000000000000000008
:1018E00000000000000000000000000000000000F8
:1018F0001808000018080000180800000000000088
:1019000000000000000000000000000000000000D7
:1019100000000000000000000000000000000000C7
:10192000000000000011200838000000390000000D
:10193000FFFFFFFF000000000000000000000000AB
:101940000000000000000000000000000000000097
:101950000000000000000000000000001808000067
:10196000180000000000000000000000000000005F
:101970000000000000000000000000000000000067
:101980000000000000000000000000000000000057
:1019900030001408090000000A000000FFFFFFFFEC
:1019A0000000000000000000000000000000000037
:1019B0000000000000000000000000000000000027
:1019C00000000000000000001808000018000000DF
:1019D0000000000000000000000000000000000007
:1019E00000000000000000000000000000000000F7
:1019F00000000000000000000000000004000000E3
:101A00003500000036000000FFFFFFFF000000006F
:101A100000000000000000000000000000000000C6
:101A200000000000000000000000000000000000B6
:101A3000000000001808000018000000000000006E
:101A40000000000000000000000000000000000096
:101A50000000000000000000000000000000000086
:101A6000000000000000000008000008F90D000060
:101A7000990D0000A90D0000790D0000890D0000EE
:101A8000D90D0000E90D0000B90D0000C90D0000DE
:101A9000411300005113000021130000B10B00009E
:101AA000A10B0000F10B0000210C0000110C000044
:101AB000010C0000510B0000410B0000310B000035
:101AC000610B0000910B0000810B00000000000082
:101AD0000102030401020304060708095265616458
:101AE0002056616C75653A2000FFFFFF150B000062
:101AF000AD090000070000000403000000B5DFF896
:101B000014B0DFF814A0DFF814C0FFF7ABFD00BD80
:101B1000704700BF000000200D000020DC1A00000C
:101B2000FFFFFFFFFFFFFFFFFFFFFFFFFFFFFFFFC5
:101B3000FFFFFFFFFFFFFFFFFFFFFFFFFFFFFFFFB5
:101B4000FFFFFFFFFFFFFFFFFFFFFFFFFFFFFFFFA5
:101B5000FFFFFFFFFFFFFFFFFFFFFFFFFFFFFFFF95
:101B6000FFFFFFFFFFFFFFFFFFFFFFFFFFFFFFFF85
:101B7000FFFFFFFFFFFFFFFFFFFFFFFF00B5DFF8E5
:101B800010B0DFF810A0FFF719FD00BD704700BFCF
:101B9000000000205C000020FFFFFFFFFFFFFFFFB1
:00000001FF
